:100000000C9439000C94F3180C94F3180C94F31816
:100010000C94F3180C94F3180C94F3180C94F31834
:100020000C94F3180C94F3180C94F3180C94F31824
:100030000C94F3180C94F3180C94F3180C94F31814
:100040000C94F3180C94F3180C94F3180C94F31804
:100050000C94F3180060006280006200820031F4AA
:1000600000820089800089008F003214008F00997F
:10007000800011241FBECFE5D8E0DEBFCDBFE4E590
:10008000F0E040E017C0B591A5913591259105911B
:1000900007FD0CC095918591EF01F92FE82F059090
:1000A0000D92A217B307D9F7FE0104C01D92A21743
:1000B000B307E1F7E137F40731F70E94B6040C9477
:0600C0009118F894FFCF37
:1000C600494E46494E4954592021210043616C63EB
:1000D600756C61746F72205365747570004C6F6136
:1000E60064696E6700557365722050617373776F2C
:1000F60072643A004C6F6767696E6720696E0057D5
:10010600656C636F6D652C204962726168656D0070
:1001160057726F6E672050617373776F7264202E0B
:020126002E00A9
:1001280068076C094C836A9074A07AC0008068885C
:0601380000846C820081CE
:10013E000708092F0405062A0102032D43003D2B53
:07014E00286E756C6C29009E
:06015500286E696C290010
:03015B0025690013
:10015E002F923F924F926F927F928F929F92AF9279
:10016E00BF92CF92DF92EF92FF920F931F93CF9396
:10017E00DF93CDB7DEB72E970FB6F894DEBF0FBE66
:10018E00CDBF4C016B0138011A8219828FEF9FEFA0
:10019E009C838B831E821D8258874F833A872987C3
:1001AE00A12CB12CD6012D913D914C912A0D3B1DC8
:1001BE00411DB7FC4A95F901849147FD808181115B
:1001CE0016C0F601208331834283F901849147FDE5
:1001DE008081853209F00FC21901442EFFEF2F1ACC
:1001EE003F0A4F0AD6012D923D924C921BC085328A
:1001FE0041F3B401082E000C990B0E9449124FEFE7
:10020E00A41AB40ACFCF2C32DCF02D3229F5298175
:10021E003A8121603A8329830196A11DF6018083DC
:10022E009183A283F60180819181A281FC012491A8
:10023E00A7FD20812B3239F729813A812460EACF3C
:10024E00203221F429813A812860E4CF233251F4FF
:10025E0029813A812061DECF203321F429813A8130
:10026E002260D8CFB701C6010E9460159E838D8390
:10027E0097FF0BC029813A81F1E02F273A8329831A
:10028E009195819591099E838D8389819A8180FFB5
:10029E0003C08D7F9A838983F60180819181A2812B
:1002AE00FC012491A7FD20812E3261F40196A11D3F
:1002BE00F60180839183A283B701C6010E94601567
:1002CE009C838B83C6010E941811182FD6012C9186
:1002DE0011968C91119712969C91E22FF82F849182
:1002EE0097FD8081082E000C990B0E94AD1889365F
:1002FE0009F44AC084F4833609F419C134F4853202
:10030E0009F445C18136E1F050C18436E9F18836F1
:10031E000CF4E9C04AC1803709F4B0C03CF48E3603
:10032E0009F4D6C08F3609F46DC03FC1853709F484
:10033E004AC0883709F485C0833709F036C10DC12C
:10034E00612F70E0A701CE010B960E940000892B51
:10035E0009F448C1F60180819181A2819C014A2F46
:10036E002F5F3F4F4F4F208331834283FC012491F7
:10037E00A7FD2081AE01455F5F4FBE016F5F7F4FCE
:10038E00C4010E9400002BC1612F70E0970141E073
:10039E0050E0CE010B960E94980C892B09F422C1D5
:1003AE00F60180819181A2810196A11D80839183A6
:1003BE00A283AE01455F5F4FBE016F5F7F4FC401E9
:1003CE000E94D60A0CC1612F70E0970140E050E008
:1003DE00CE010B960E94980C892B09F403C1F601ED
:1003EE0080819181A2810196A11D80839183A28338
:1003FE00AE01455F5F4FBE016F5F7F4FC4010E942C
:10040E009212EDC0612F70E0970140E050E0CE01F6
:10041E000B960E94980C892B09F4E4C0F60180819A
:10042E009181A2810196A11D80839183A283AE0149
:10043E00455F5F4FBE016F5F7F4FC4010E941B106F
:10044E00CEC0612F70E0970140E050E0CE010B96D8
:10045E000E94980C892B09F4C5C0F6018081918108
:10046E00A2819C014A2F2F5F3F4F4F4F2083318334
:10047E004283FC012491A7FD208120C0970140E01A
:10048E0050E060EF70E0CE010B960E94980C892B25
:10049E0009F4A8C0F60180819181A2810196A11D67
:1004AE0080839183A2838B859C85892B31F400E018
:1004BE0010E025E531E040E08CC028E7AE01455F55
:1004CE005F4FBE016F5F7F4FC4010E94390687C028
:1004DE00A501460D571D612F70E09701CE010B96B9
:1004EE000E9400007FC0612F70E0A701CE010B9625
:1004FE000E940000892B09F475C0F601808191815C
:10050E00A2819C014A2F2F5F3F4F4F4F2083318393
:10051E004283FC012491A7FD2081AE01455F5F4F10
:10052E00BE016F5F7F4FC4010E94000058C010389B
:10053E0009F058C0F60180819181A2810196A11D1A
:10054E0080839183A283D701ED91FC911197CF0106
:10055E0002968D939C93808126C0103809F042C07C
:10056E00F60180819181A2810196A11D80839183E4
:10057E00A283D701ED91FC911197CF0103968D9334
:10058E009C9320813181428100E010E022C010381E
:10059E0049F5F6012081318142812F5F3F4F4F4F48
:1005AE002083318342838B870EC085E28B87F601D1
:1005BE002082318242821A8219821E821D828FEF20
:1005CE009FEF9C838B839E01255F3F4F40E801E0A8
:1005DE0010E0BE016F5F7F4FC4010E9423158A0D8C
:1005EE009B1D0AC0F60180819181A2810196A11DF9
:1005FE0080839183A283C5012E960FB6F894DEBF39
:10060E000FBECDBFDF91CF911F910F91FF90EF9055
:10061E00DF90CF90BF90AF909F908F907F906F9014
:08062E004F903F902F900895BA
:100636004F925F926F927F928F929F92AF92BF92EC
:10064600CF92DF92EF92FF920F931F93CF93DF9398
:10065600CDB7DEB766970FB6F894DEBF0FBECDBF37
:1006660019821A828AE0FE013396DF01282F1D9235
:100676002A95E9F73A96DF011D928A95E9F711E086
:100686008AE790E06C01B0E8EB2E89E890E02C0157
:1006960020E8622E88248A94810EBC2CAD2C9E2CD8
:1006A6008E2DB6010E942607F82E3FEF80E792E0D6
:1006B600315080409040E1F700C00000A1E4FA16F6
:1006C60061F386ED8F0D823068F01090910015FC75
:1006D60004C0689415F81092910011248F2D8D7F17
:1006E6008D32A1F489E890E02C01B0E86B2E782ECB
:1006F600852CCB2E0F2D212F41E0862DB2010E9495
:100706003E16EE24E394E10ED12C1AC0109091000F
:1007160016FC04C0689416F81092910011244F2D0F
:1007260050E0012F21E0862DB2010E94A914E3E0DA
:10073600F0E0EC0FFD1FE80DF11DF0821F5FAACF60
:100746006B2D7A2D892D0E942607182F2FEF30E763
:1007560082E0215030408040E1F700C000001134B3
:1007660079F31D3309F08CC00DE32E2D41E0862D63
:10077600B2010E943E169E012E5F3F4FAE014F5FB3
:100786005F4FBE01635F7F4FCE0103960E94A613A3
:100796008981882369F1FE013396DF01A80FB11D17
:1007A600CD0140E050E0BA01440F551F661F771F88
:1007B6008A019B01000F111F221F331F000F111FFB
:1007C600221F331F400F511F621F731F2191420FBB
:1007D600511D611D711DE817F90731F71090910041
:1007E60017FC04C0689417F81092910011240CC0ED
:1007F6001090920010FC04C0689410F810929200B9
:10080600112440E050E0BA018A81882309F480C0AF
:10081600FE013D969F01280F311DC901812C912CA7
:100826005401880C991CAA1CBB1C95018401000F5D
:10083600111F221F331F000F111F221F331F800E8F
:10084600911EA21EB31E2191820E911CA11CB11CE9
:10085600E817F90731F7950184018F2D0E943B0AAD
:10086600E39489288A288B2809F041C010909200C9
:1008760011FC04C0689411F81092920011241CC057
:100886001090920016FC04C0689416F8109292001C
:100896001124412F50E00E2D21E0672D782D8C2D4F
:1008A6000E94A914EDE0F0E0EC0FFD1FED0DF11D27
:1008B6001083D394E39444CF1090920013FC04C0A9
:1008C600689413F810929200112401E026EC30E0AF
:1008D60040E0862DB2010E94050F3FEF81EE94E0C5
:1008E600315080409040E1F700C000001CC01090DD
:1008F600920012FC04C0689412F81092920011241F
:1009060001E09B01AC01862DB2010E94EA130BC0E7
:100916001090920014FC04C0689414F8109292008F
:100926001124E394C9CF1090920015FC04C068947A
:1009360015F810929200112466960FB6F894DEBF51
:100946000FBECDBFDF91CF911F910F91FF90EF901A
:10095600DF90CF90BF90AF909F908F907F906F90D9
:060966005F904F90089520
:10096C00CF93DF93CDB7DEB72B970FB6F894DEBFDE
:10097C000FBECDBF81E089838A838B8382E08C8319
:10098C001D821E821F8218860E94FB1789E890E048
:10099C001C0120E8422EC82EB32CA22E0F2EF3E001
:1009AC00EF2EF02D02E022ED30E040E0842DB1017D
:1009BC000E94050F3FEF89E698E13150804090404E
:1009CC00E1F700C0000041E0842DB1010E94DA1271
:1009DC00EE24E39401E023EE30E040E0842DB101FD
:1009EC000E94050F18E00EE2212F41E06C2D7B2DAB
:1009FC008A2D0E943E162FEF31EE84E021503040BC
:100A0C008040E1F700C000001F5F1F3061F79FEFCF
:100A1C0023EC39E0915020403040E1F700C0000059
:100A2C0041E0842DB1010E94DA128FEF90E722E0B1
:100A3C00815090402040E1F700C00000CE010596A7
:100A4C009A8789878AE790E03C0120E8822E3985D5
:100A5C003B875A84912CEE24E39401E02BEE30E09A
:100A6C0040E06C2D7B2D8A2D0E94050F162DF72C46
:100A7C00D82C882DB3010E942607E82E8FEF99EF12
:100A8C0020E0815090402040E1F700C0000031E4AC
:100A9C00E31661F31090920017FC04C0689417F8E9
:100AAC001092920011242FE0290D0AE241E06C2DE6
:100ABC007B2D8A2D0E943E16E5E0F0E0EC0FFD1F29
:100ACC00E90DF11DE082939483E4E812C4CF41E078
:100ADC006C2D7B2D8A2D0E94DA129FEF20E732E0DD
:100AEC00915020403040E1F700C0000044E0BE01CE
:100AFC006F5F7F4F8B85952D0E946711813009F0B8
:100B0C007FC041E0842DB1010E94DA128FEF90E793
:100B1C0022E0815090402040E1F700C00000EE241C
:100B2C00E39401E02AEF30E040E0842DB1010E9413
:100B3C00050F0F2EFBE0EF2EF02D0EE22E2D41E0D7
:100B4C006C2D7B2D8A2D0E943E163FEF81EE94E09A
:100B5C00315080409040E1F700C00000E39422E166
:100B6C00E212EBCF0F2EF3E0EF2EF02D02E025E09A
:100B7C0031E040E0842DB1010E94050F3FEF83ED81
:100B8C0090E3315080409040E1F700C0000041E01C
:100B9C00842DB1010E94DA122FEF30E782E0215050
:100BAC0030408040E1F700C000000E941B03612F21
:100BBC007F2D8D2D0E9426079FEF29EF30E091505D
:100BCC0020403040E1F700C00000813481F31090E8
:100BDC00930010FC04C0689410F810929300112438
:100BEC008FEF90E722E0815090402040E1F700C069
:100BFC00000041E06C2D7B2D8A2D0E94DA12D5CF9E
:100C0C001090930011FC04C0689411F8109293009A
:100C1C00112441E06C2D7B2D8A2D0E94DA123FEFBE
:100C2C0081EE94E0315080409040E1F700C000002C
:100C3C00EE24E39401E026E131E040E06C2D7B2DC5
:100C4C008A2D0E94050F2FEF33ED80E321503040A9
:100C5C008040E1F700C0000041E06C2D7B2D8A2D17
:060C6C000E94DA12F7CE2F
:100C7200AFE0B0E0EFE3F6E00C9465171C016B0106
:100C82005A8349832B83FB018281938184809580DF
:100C9200E080F180A680B78097FD03C0E894E1F878
:100CA20002C081E090E0E981FA8140805180628057
:100CB20073809701207133273D832C838401E4FEE6
:100CC20007C0411451046104710411F0025011096A
:100CD200F701E870FF27FF83EE83E3FE02C00150B5
:100CE2001109F6010084F185E02D3197FF87EE8727
:100CF200EA0DFB1D10829C01201B310B39872887CE
:100D0200C701827099279B878A87EB818E2FEE0F0E
:100D1200990B9C01215431093D872C872E853F85F3
:100D22002230310530F48C819D81892B09F041C03C
:100D32005BC0411451046104710459F18E859F8591
:100D420001979F878E87C2018F7099278A309105FC
:100D520014F4C09602C0895A9F4FEC85FD857A979C
:100D620048F49C012062215631092A31310510F4E0
:100D72000E949C18EE85FF85EA0DFB1D80830150C1
:100D8200110984E076946794579447948A95D1F731
:100D9200C5CF88859985800F911F1816190674F2A0
:100DA200101611060CF0BFCFEA85FB85EF2B31F64A
:100DB200BACFE981FA8180819181A281B381892BA5
:100DC2008A2B8B2B89F0EE85FF85EA0DFB1D31976F
:100DD2002B8120838E859F8502979F878E87FC01BA
:100DE200EA0DFB1D80E38083EE81FF81EF2B59F03A
:100DF2002E853F85215031093F872E87F901EA0D63
:100E0200FB1D80E28083F601208531852150310966
:100E12008E859F85281B390B8A0D9B1DAC0160E8CE
:100E22008401C1010E94B4119C01F1018081918170
:100E320090FF06C0F60182819381821793070CF41A
:0A0E4200C9012F96E2E10C9481171C
:100E4C002F923F924F926F927F928F92BF92CF923E
:100E5C00DF92EF92FF920F931F93CF93DF93CDB757
:100E6C00DEB72A970FB6F894DEBF0FBECDBF19823E
:100E7C0061157105810509F490C0688779878A87A7
:100E8C008EE391E0A0E08A839B83AC830885F98490
:100E9C00BA8488859985AA858D839E83AF8311E456
:100EAC001C014A2E98E0290E311C411C6BC041E0FC
:100EBC00882DB3010E94B90BAFEF6A1A7A0A8A0A1D
:100ECC00C614D704E80499F740E06D817E818F81C8
:100EDC000E94B90B2FEF89EF90E021508040904099
:100EEC00E1F700C000006A807B808C80AE014F5F10
:100EFC005F4F8E2DB6010E946213898181110DC046
:100F0C001090970013FC04C0689413F8109297008B
:100F1C001124F301149187FC10811090970014FC9C
:100F2C0004C0689414F8109297001124AFEFCA1AF9
:100F3C00DA0AEA0A2FEF621A720A820AC214D3047E
:100F4C00E404A1F61090970015FC04C0689415F801
:100F5C001092970011248A819B81AC810496A11D6B
:100F6C008A839B83AC838D819E81AF810196A11D69
:100F7C008D839E83AF838A819B81AC818E549140FB
:100F8C00A040A9F0C884D984EA8484E0C80ED11C9E
:100F9C00E11C602E7F2C8B2C8ACF1090970016FCB6
:100FAC0004C0689416F810929700112411E4109064
:100FBC00970017FC04C0689417F81092970011243E
:100FCC00812F2A960FB6F894DEBF0FBECDBFDF91EE
:100FDC00CF911F910F91FF90EF90DF90CF90BF902A
:0E0FEC008F907F906F904F903F902F900895C0
:100FFA002F923F924F926F927F928F92CF92DF926F
:10100A00EF9261157105810509F4A6C03B01882E8E
:10101A000E94D315882DB3016F5F7F4F8F4F0E94B7
:10102A00D315E82C630122E0C20ED11CE11C130186
:10103A00482C36E0230E311C411C8E2DB6010E942D
:10104A00D3158FEFC81AD80AE80AC214D304E404E5
:10105A00A1F71090830011FC04C0689411F8109253
:10106A00830011249FEF22E537E091502040304061
:10107A00E1F700C0000043E3882DB3010E94DA12B1
:10108A008FEF99EF20E0815090402040E1F700C0B7
:10109A00000042E3882DB3010E94DA123FEF89EF84
:1010AA0090E0315080409040E1F700C0000048E2F3
:1010BA00882DB3010E94DA122FEF39EF80E0215018
:1010CA0030408040E1F700C000004CE0882DB301B9
:1010DA000E94DA129FEF29EF30E091502040304011
:1010EA00E1F700C0000041E0882DB3010E94DA1246
:1010FA008FEF99EF20E0815090402040E1F700C047
:10110A00000042E0882DB3010E94DA123FEF89EF16
:10111A0090E0315080409040E1F700C0000046E086
:10112A00882DB3010E94DA122FEF39EF80E02150A7
:10113A0030408040E1F700C0000040E8882DB3014C
:10114A000E94DA129FEF29EF30E0915020403040A0
:10115A00E1F700C000000AC01090830012FC04C02E
:10116A00689412F810928300112480E01090830092
:10117A0013FC04C0689413F8109283001124EF90B2
:10118A00DF90CF908F907F906F904F903F902F90ED
:02119A000895B6
:10119C004F925F926F927F928F929F92AF92BF927B
:1011AC00CF92DF92EF92CF936B01E82E49015A0157
:1011BC00672B682B09F47BC020E030E0A901C50146
:1011CC00B4010E94DE18882394F41090870014FC5C
:1011DC0004C0689414F8109287001124B7FAB094E4
:1011EC00B7F8B0944DE28E2DB6010E941E13C501C6
:1011FC00B4010E94BC182B013C019B01AC018E2D4B
:10120C00B6010E948809C301B2010E94E8149B0137
:10121C00AC01C501B4010E94B5184B015C0120E082
:10122C0030E0A9010E94E31818160CF04BC0109086
:10123C00870015FC04C0689415F8109287001124DF
:10124C004EE28E2DB6010E941E1320E030E040E2EB
:10125C0051E4C501B4010E94EC184B015C010E94E1
:10126C00BC18C62F572E682E792E40E3460F8E2DB4
:10127C00B6010E941E136C2F752D862D972D0E9482
:10128C00E8149B01AC01C501B4010E94B51820E023
:10129C0030E040E251E40E94EC180E94BC1840E39C
:1012AC00460F8E2DB6010E941E1381E015C01090C2
:1012BC00870017FC04C0689417F81092870011245B
:1012CC0080E00AC01090870016FC04C0689416F8E1
:1012DC0010928700112481E01090880010FC04C04B
:1012EC00689410F8109288001124CF91EF90DF9041
:1012FC00CF90BF90AF909F908F907F906F905F90AA
:04130C004F90089561
:101310002F923F924F925F926F927F928F92AF92F5
:10132000BF92CF92DF92EF92FF921F93CF93DF9302
:10133000CDB7DEB72A970FB6F894DEBF0FBECDBF8C
:101340003B01882E69017A01672B682B09F469C07B
:10135000FE0131968AE0DF011D928A95E9F7552357
:10136000B4F41090860017FC04C0689417F810922B
:1013700086001124F094E094D094C094C11CD11C38
:10138000E11CF11C4DE2882DB3010E941E1310E0F8
:101390000F2EFAE02F2E312C412C512CF02DAA24A7
:1013A000A394B12CAC0EBD1EA10EB11C17FDBA94B6
:1013B000C701B601A20191010E94CE17F501608319
:1013C000C22ED32EE42EF52E1F5FC114D104E104EA
:1013D000F10429F71116D4F41090870010FC04C012
:1013E000689410F81092870011241150E1E0F0E0A9
:1013F000EC0FFD1FE10FF11D17FDFA954081405DD7
:10140000882DB3010E941E131111E6CF10908700A2
:1014100011FC04C0689411F810928700112481E037
:101420000AC01090870012FC04C0689412F8109251
:101430008700112480E01090870013FC04C068949A
:1014400013F81092870011242A960FB6F894DEBF85
:101450000FBECDBFDF91CF911F91FF90EF90DF9036
:10146000CF90BF90AF908F907F906F905F904F9094
:061470003F902F9008954B
:101476008F929F92AF92BF92CF92DF92EF92FF929E
:101486000F931F93680179018B32E9F08C3260F477
:101496008A32E9F110908F0016FC04C0689416F8A1
:1014A60010928F0011245FC08D32F9F08F3209F44B
:1014B60040C01090900010FC04C0689410F8109280
:1014C6009000112450C01090900014FC04C0689441
:1014D60014F8109290001124CB01BA01600F711F0D
:1014E600821F931F0E94E6144AC01090900012FCBF
:1014F60004C0689412F8109290001124CB01BA012E
:10150600601B710B820B930B0E94E61438C010907F
:101516008F0017FC04C0689417F810928F001124EE
:101526009A01AB01C701B6010E9433180E94E61466
:1015360026C01090900011FC04C0689411F8109217
:1015460090001124CB01BA010E94E6144B015C0104
:10155600C701B6010E94E6149B01AC01C501B401A6
:101566000E94E8180CC01090900013FC04C0689408
:1015760013F810929000112460E070E0CB011090F7
:10158600900015FC04C0689415F810929000112480
:101596001F910F91FF90EF90DF90CF90BF90AF908B
:0615A6009F908F90089554
:1015AC00A2E0B0E0ECEDFAE00C9465174C016B0195
:1015BC00FB0122813381A480B580808191819A8343
:1015CC00898366807780FA01208031804280538045
:1015DC00B201A10157FE07C044275527BA01421991
:1015EC0053096409750937FD03C08D7F9A8389837C
:1015FC00950157FC05C0898182FD02C083FF02C0A2
:10160C0021503109CE0101967C010AE010E0C6019F
:10161C000E943C0E57FC03C0298122FF0AC001978F
:10162C00F301E80FF91F57FC02C02BE209C02DE2B1
:10163C0007C023FF06C00197F301E80FF91F20E252
:10164C002083E980FA80F60120853185215031090B
:10165C00281B390B860D971DAC0160E88501C40170
:10166C000E94B4119C01F4018081918190FF06C00D
:10167C00F60182819381821793070CF4C90122969B
:06168C00E2E10C9481175D
:1016920061157105810509F456C0423051F143309C
:1016A20060F44130C1F01090830014FC04C06894CF
:1016B20014F810928300112451C0433041F1443098
:1016C200A1F11090830016FC04C0689416F81092E1
:1016D2008300112443C01090830015FC04C0689459
:1016E20015F81092830011244FE7420F0E94DA127C
:1016F20008951090840012FC04C0689412F81092AD
:10170200840011244FEB420F0E94DA1208951090C8
:10171200840010FC04C0689410F810928400112414
:1017220043E9420F0E94DA1208951090830017FCD9
:1017320004C0689417F810928300112443ED420FFD
:101742000E94DA1208951090840013FC04C0689479
:1017520013F810928400112480E008951090840000
:1017620011FC04C0689411F81092840011240895A9
:1017720061157105810509F460C0442361F04130AF
:10178200A1F11090940016FC04C0689416F810920F
:101792009400112452C01090950010FC04C068946B
:1017A20010F8109295001124FB01982F849197FD57
:1017B2008081E82FE770F0E0EE0FFF1FE659FF4F40
:1017C2000190F081E02D40818695869586958770FF
:1017D20021E030E0B90102C0660F771F8A95E2F777
:1017E200CB0180958423808328C01090940017FC3D
:1017F20004C0689417F8109294001124FB01982FEA
:10180200849197FD8081E82FE770F0E0EE0FFF1FD3
:10181200E659FF4F0190F081E02D40818695869533
:101822008695877021E030E0B90102C0660F771F0C
:101832008A95E2F7CB01842B80831090950011FCEE
:1018420004C0689411F810929500112481E0089563
:1018520010C00E94CA1858F00E94C31840F029F420
:101862005F3F29F00C94D81851110C94D2180C94A3
:10187200F0180E94211768F39923B1F3552391F3CD
:10188200951B550BBB27AA2762177307840738F0ED
:101892009F5F5F4F220F331F441FAA1FA9F335D04A
:1018A2000E2E3AF0E0E832D091505040E695001CFE
:1018B200CAF72BD0FE2F29D0660F771F881FBB1FB8
:1018C200261737074807AB07B0E809F0BB0B802D96
:1018D200BF01FF2793585F4F3AF09E3F510578F0C2
:1018E2000C94D8180C94D2185F3FE4F3983ED4F3CA
:1018F200869577956795B795F7959F5FC9F7880F96
:10190200911D9695879597F90895E1E0660F771FE7
:10191200881FBB1F621773078407BA0720F0621B78
:0E192200730B840BBA0BEE1F88F7E095089547
:10193000CF93DF93DC01F90168387105F1F05CF4B5
:101940006138710561F164387105C9F1603871055C
:1019500009F056C034C0603C710561F1603F71050B
:1019600009F443C0603A710509F04AC0C081D181D1
:10197000CE010296918380832AC0C081D181CE019D
:10198000029691838083452B39F04881042E000C08
:10199000550B660B770B21C0488150E02EC0C081EB
:1019A000D181CE01049691838083488159816A81D7
:1019B0007B8113C0C081D181CE0102961AC0C08143
:1019C000D181CE01029691838083452BA1F048817D
:1019D0005981052E000C660B770B4D935D936D932B
:1019E0007C93139781E090E00DC0C081D181CE013E
:1019F0000396918380834881598160E070E0EDCF48
:0A1A000080E090E0DF91CF9108959F
:101A0A000FC00E94C31838F00E94CA1820F095230C
:101A1A0011F00C94D8180C94F01811240C94D218C4
:101A2A000E94211770F3959FC1F3950F50E0551F3F
:101A3A00629FF001729FBB27F00DB11D639FAA2719
:101A4A00F00DB11DAA1F649F6627B00DA11D661F68
:101A5A00829F2227B00DA11D621F739FB00DA11D89
:101A6A00621F839FA00D611D221F749F3327A00D43
:101A7A00611D231F849F600D211D822F762F6A2FDF
:101A8A0011249F5750409AF0F1F088234AF0EE0F44
:101A9A00FF1FBB1F661F771F881F91505040A9F771
:101AAA009E3F510580F00C94D8180C94D2185F3FD1
:101ABA00E4F3983ED4F3869577956795B795F795AD
:101ACA00E7959F5FC1F7FE2B880F911D9695879525
:041ADA0097F90895DB
:101ADE0011C00E94C31838F00E94CA1820F039F4C1
:101AEE009F3F19F426F40C94F0180EF4E095E7FBE2
:101AFE000C94D818E92F0E94211758F3BA176207D1
:101B0E0073078407950720F079F4A6F50C94D11885
:101B1E000EF4E0950B2EBA2FA02D0B01B9019001FA
:101B2E000C01CA01A0011124FF27591B99F0593F3E
:101B3E0050F4503E68F11A16F040A22F232F342F86
:101B4E004427585FF3CF469537952795A795F040D4
:101B5E005395C9F77EF41F16BA0B620B730B840BE9
:101B6E00BAF09150A1F0FF0FBB1F661F771F881FA1
:101B7E00C2F70EC0BA0F621F731F841F48F48795F9
:101B8E0077956795B795F7959E3F08F0B0CF9395EB
:0E1B9E00880F08F09927EE0F97958795089508
:101BAC002F923F924F926F927F928F92CF92DF92B1
:101BBC00EF92FF920F93CF93DF933701802E611535
:101BCC007105810591F10C2D1301482CD22FC42FD6
:101BDC006B01E82E402F440F440F440F40640E94C9
:101BEC00DA1288E0280E311C411CF301449187FC69
:101BFC0040818E2DB6010E941E138FEF681A780A51
:101C0C00880A62147304840481F71090860012FC15
:101C1C0004C0689412F81092860011242D2F4C2FBA
:101C2C008E2DB6010E943E160AC01090860013FC41
:101C3C0004C0689413F810928600112480E0109070
:101C4C00860014FC04C0689414F8109286001124C9
:101C5C00DF91CF910F91FF90EF90DF90CF908F900D
:0C1C6C007F906F904F903F902F90089554
:101C7800A0E0B0E0E2E4FEE00C946717DC01280184
:101C88001696AD90BC901797F701808191811296B6
:101C9800ED91FC9113971896CD91DC9119972197A6
:101CA800F7FF02C0E1E0F0E0CA0DDB1D1882690110
:101CB800A1E0B0E08F01021B130B4C01F2E08F2270
:101CC8009924052C000C66087708CE018A199B090F
:101CD800CA15DB0519F1411551056105710589F032
:101CE800CB01BA01A30192010E944317CA01A62F92
:101CF800B72F605D6A9341E0C41AD108A901BC01FD
:101D0800E4CF98012C0D3D1D121613064CF31C143C
:101D18001D0434F48114910419F702C080E090E0A6
:101D2800AB2B31F4F701208131812F7E3183208361
:0A1D3800CDB7DEB7E0E10C9483178D
:101D4200A82FCB010097A10509F453C0FC012491EF
:101D5200A7FD208126FD26C01090940010FC04C02F
:101D6200689410F8109294001124822FE22FE770E9
:101D7200F0E0EE0FFF1FEE58FF4F0190F081E02DD3
:101D82004081869586958695877021E030E0B9017D
:101D920002C0660F771F8A95E2F7CB0180958423F4
:101DA200808327C01090940011FC04C0689411F83D
:101DB200109294001124FC018491A7FD8081E82FE8
:101DC200E770F0E0EE0FFF1FEE58FF4F0190F08139
:101DD200E02D4081869586958695877021E030E0DA
:101DE200B90102C0660F771F8A95E2F7CB01842BF7
:101DF20080831090940012FC04C0689412F8109230
:081E02009400112481E0089511
:101E0A006F927F928F92CF92DF92EF920F933B0164
:101E1A00882E672B682BD1F11090850016FC04C020
:101E2A00689416F81092850011248E2D6901E42E0B
:101E3A00282F402F882DB3010E94490BF6014491A7
:101E4A00E7FC4081442361F18FEFC81AD80AE80AF7
:101E5A00882DB3010E941E139FEFC91AD90AE90AF5
:101E6A004E2D9601215031094109F901942F4491CF
:101E7A0097FD40814111ECCF1090850017FC04C0FA
:101E8A00689417F81092850011240AC010908600F1
:101E9A0010FC04C0689410F810928600112480E0A7
:101EAA001090860011FC04C0689411F81092860004
:101EBA0011240F91EF90DF90CF908F907F906F90C9
:021ECA00089579
:101ECC002F923F924F926F927F928F92CF92DF928E
:101EDC00EF9261157105810551F41090970010FC7B
:101EEC0004C0689410F810929700112431C01B01A3
:101EFC00482E3B01882E6B01E82E84E0C80ED11CC5
:101F0C00E11C882DB3010E94D3159FEF691A790A41
:101F1C00890AC614D704E804A1F7842C310188E09F
:101F2C00680E711C811C1090970011FC04C0689401
:101F3C0011F81092970011248E2DB6010E94A10E5B
:101F4C009FEFC91AD90AE90A6C147D048E0459F75B
:101F5C001090970012FC04C0689412F8109297002D
:101F6C001124EF90DF90CF908F907F906F904F90D7
:061F7C003F902F90089534
:101F82006F927F928F92CF92DF92EF923B01882ED7
:101F92006901E42E672B682B41F1F9014491E7FCBA
:101FA2004081442369F12FEFC21AD20AE20A882D36
:101FB200B3010E941E139FEFC91AD90AE90A4E2DD6
:101FC2009601215031094109F901242F449127FD3D
:101FD20040814111ECCF1090840017FC04C068943A
:101FE20017F810928400112415C01090850011FC7E
:101FF20004C0689411F810928500112480E00AC090
:102002001090850010FC04C0689410F810928500AE
:10201200112481E01090850012FC04C0689412F82B
:10202200109285001124EF90DF90CF908F907F90D7
:042032006F9008950E
:10203600A2E0B0E0E1E2F0E10C9469175C016B010B
:10204600FB012281338184809580808191819A83EE
:1020560089836680778037FD03C08D7F9A83898365
:10206600FA014081518162817381CE0101967C0122
:1020760008E010E09401C6010E943C0E298124FF6D
:1020860006C00197F301E80FF91F20E32083298199
:1020960023FF06C00197F301E80FF91F20E2208312
:1020A600E980FA80F6012085318521503109281B07
:1020B600390B860D971DAC0160E88401C5010E94AD
:1020C600B4119C01F5018081918190FF06C0F60153
:1020D60082819381821793070CF4C9012296EEE060
:0420E6000C948517BA
:1020EA006F927F928F92EF92FF920F931F93CF93EB
:1020FA00DF93CDB7DEB761970FB6F894DEBF0FBE98
:10210A00CDBFFE01319651E1DF011D925A95E9F7E3
:10211A00A2E0B1E0BA83A9839C838B8377FF09C0CD
:10212A008FE490E090936100809360008FEF9FEFBF
:10213A0019C03901842E7C01615071097F836E8335
:10214A009801682DA301CF010E94B61748855985C9
:10215A002E813F814217530708F49A01F701E20FD3
:10216A00F31F108261960FB6F894DEBF0FBECDBF83
:10217A00DF91CF911F910F91FF90EF908F907F90F9
:04218A006F900895B5
:10218E00CF92DF92EF92CF9361157105810589F1A0
:10219E001090820010FC04C0689410F81092820017
:1021AE001124C42F6B01E82E41706E5F7F4F8F4F4D
:1021BE000E94B90BC1FB442740F98E2DB6016D5F0D
:1021CE007F4F8F4F0E94B90BC2FB442740F98E2DD3
:1021DE00B6016C5F7F4F8F4F0E94B90BC3FB442734
:1021EE0040F98E2DB6016B5F7F4F8F4F0E94B90B5A
:1021FE000AC01090820011FC04C0689411F810926D
:10220E008200112480E01090820012FC04C06894B9
:10221E0012F8109282001124CF91EF90DF90CF90A0
:02222E00089511
:10223000CF92DF92EF92DC0190E0292F30E0220F65
:10224000331F6901032E000CEE086E2DA601485DB8
:102250005E4F6F4F6A01E62EFA018491E7FC8081A0
:1022600081110DC02F5F3F4F032E000C440B285DE2
:102270003E4F4F4FF901849147FD808124C0CD909E
:10228000DD90EC901297F6014491E7FC40818413B5
:1022900015C02F5F3F4F032E000C440B285D3E4FAF
:1022A0004F4FF901949147FD90815FEFC51AD50A10
:1022B000E50ACD92DD92EC92129701C09F5F9B30B0
:0E22C00008F4BBCF892FEF90DF90CF900895E8
:1022CE00442351F1FC013081FB01208132132FC0D8
:1022DE00FC013196DB0111969C01240F311DA901E1
:1022EE000DC010908F0011FC04C0689411F810926C
:1022FE008F00112421919D91291324C0E417F50715
:10230E0081F710908F0013FC04C0689413F810929C
:10231E008F00112481E0089510908F0015FC04C0E9
:10232E00689415F810928F00112481E00895109092
:10233E008F0014FC04C0689414F810928F001124BE
:10234E0080E0089510908F0012FC04C0689412F87B
:0A235E0010928F00112480E0089512
:102368006F927F928F92AF92BF92CF92DF92EF924D
:10237800FF920F931F93CF93DF935C013A01862E50
:10238800E901670181E0C822DD24E0FC03C02017D1
:10239800310758F09E01682DA301C5010E940A1655
:1023A800C017D10710F0CE0118C07801EC1AFD0A49
:1023B800E114F10449F0B50180E290E00E9449126D
:1023C80081E0E81AF108F4CFCD2831F49E01682D98
:1023D800A301C5010E940A16C801DF91CF911F9180
:1023E8000F91FF90EF90DF90CF90BF90AF908F90BC
:0623F8007F906F90089534
:1023FE00A3E8B0E0E5E0F2E10C946B175C01490153
:10240E00CF57DF4F488359836A83C158D040C12CC0
:10241E00D12CCF57DF4F2881C158D040CE57DF4F38
:10242E009881C258D040CD57DF4F8881C358D040D5
:10243E00E22FF92F949187FD90819923E9F0740191
:10244E00860120E830E0AE014F5F5F4FBE016F574F
:10245E007F4FC5010E94AF008C0D9D1D8C159D05F3
:10246E004CF48FE490E090936100809360008FEFC6
:10247E009FEF03C06C01CDCFC601CD57DF4FECE00F
:04248E000C9487170C
:102492000F931F93CF93DF93DB012D913C91119703
:1024A20030FF25C017964D915C91189715962D9186
:1024B2003C9116974217530778F41296ED91FC91CE
:1024C2001397808312962D913C9113972F5F3F4F64
:1024D20013963C932E93129717962D913C91189731
:1024E2002F5F3F4F18963C932E93179715C01D965A
:1024F200ED91FC911E97309719F48FEF9FEF0CC06E
:102502008B01EC010995892BC1F7F8018781908530
:10251200019690878783CE01DF91CF911F910F9112
:0225220008951A
:10252400A2E0B0E0E8E9F2E10C9469175C016B0108
:10253400FB012281338184809580808191819A83FB
:1025440089836680778037FD03C08D7F9A83898372
:10255400FA014081518162817381CE0101967C012F
:102564000AE010E09401C6010E943C0EE980FA8062
:10257400F6012085318521503109281B390B860D40
:10258400971DAC0160E88401C5010E94B4119C014F
:10259400F5018081918190FF06C0F60182819381CB
:1025A400821793070CF4C9012296EEE00C94851768
:1025B400CF92DF92EF92CF9361157105810521F1DE
:1025C4001090820016FC04C0689416F810928200E1
:1025D4001124C42F6B01E82E40E00E94B90B4C2F4C
:1025E40042954F708E2DB6010E94C7108E2DB601F4
:1025F4000E946B144C2F8E2DB6010E94C7108E2D95
:10260400B6010E946B140AC01090820017FC04C02B
:10261400689417F810928200112480E010908300CF
:1026240010FC04C0689410F8109283001124CF9118
:08263400EF90DF90CF900895B4
:10263C00CF92DF92EF92CF9361157105810521F155
:10264C001090840014FC04C0689414F81092840058
:10265C001124C42F6B01E82E41E00E94B90B4C2FC2
:10266C0042954F708E2DB6010E94C7108E2DB6016B
:10267C000E946B144C2F8E2DB6010E94C7108E2D0C
:10268C00B6010E946B140AC01090840015FC04C0A3
:10269C00689415F810928400112480E01090840046
:1026AC0016FC04C0689416F8109284001124CF9183
:0826BC00EF90DF90CF9008952C
:1026C40061157105810551F14115510591F1109084
:1026D400950012FC04C0689412F81092950011241D
:1026E400FB01249187FD2081E22FE770F0E0EE0FDB
:1026F400FF1FEE59FF4F0190F081E02D808190E0A3
:10270400269526952695277002C0959587952A9536
:10271400E2F78170FA01808381E0089510909500BA
:1027240014FC04C0689414F810929500112480E0FD
:1027340008951090950013FC04C0689413F8109247
:082744009500112480E00895C6
:10274C00CF93DF93EC01D901FA019081FE01E90FDF
:10275C00F11D8081882399F09F5F1090910012FCED
:10276C0004C0689412F8109291001124FA0190831D
:10277C00FE01E90FF11D30819F5F3111EECF8C917D
:10278C00FB01E80FF11D9081992391F08F5F109060
:10279C00910013FC04C0689413F81092910011245A
:1027AC008C93FB01E80FF11D90818F5F9111EFCF9E
:1027BC001090910014FC04C0689414F810929100CD
:0827CC001124DF91CF91089563
:1027D4008F929F92AF92BF92CF92DF92EF920F931C
:1027E400611571058105C9F01090880011FC04C0C1
:1027F400689411F81092880011249E2D49015A0101
:102804006B01E82E292F402F0E94490BA50194014A
:102814008E2DB6010E94CE080AC01090880012FCCA
:1028240004C0689412F810928800112480E010907B
:10283400880013FC04C0689413F8109288001124D3
:102844000F91EF90DF90CF90BF90AF909F908F90BB
:022854000895E5
:1028560061157105810589F11090940013FC04C07F
:10286600689413F81092940011244115510529F12A
:102876001090940014FC04C0689414F8109294000C
:102886001124FB01249187FD2081E22FE770F0E0FF
:10289600EE0FFF1FEE58FF4F0190F081E02D808173
:1028A60090E0269526952695277002C095958795E2
:1028B6002A95E2F78170FA0180831090940015FC46
:1028C60004C0689415F810929400112481E00895CC
:1028D600CF92DF92EF9261157105810501F110909B
:1028E600820013FC04C0689413F81092820011242D
:1028F6006B01E82E8FEFC81AD80AE80A41E08E2D40
:10290600B6010E94B90B8FE19EE40197F1F700C072
:10291600000040E08E2DB6010E94B90B0AC010904F
:10292600820014FC04C0689414F8109282001124EA
:1029360080E01090820015FC04C0689415F810928F
:0C29460082001124EF90DF90CF900895E4
:10295200CF92DF92EF920F93CF93DF9361157105C0
:102962008105C9F01090880014FC04C0689414F822
:10297200109288001124922FEA016B01E82E202F79
:10298200492F0E94490B9E0140E050E08E2DB60176
:102992000E9488090AC01090880015FC04C068943F
:1029A20015F810928800112480E01090880016FC1F
:1029B20004C0689416F8109288001124DF91CF9118
:0A29C2000F91EF90DF90CF90089581
:1029CC00E89409C097FB3EF49095809570956195BD
:1029DC007F4F8F4F9F4F9923A9F0F92F96E9BB2773
:1029EC009395F695879577956795B795F111F8CFEF
:1029FC00FAF4BB0F11F460FF1BC06F5F7F4F8F4F5A
:102A0C009F4F16C0882311F096E911C0772321F04F
:102A1C009EE8872F762F05C0662371F096E8862FE7
:102A2C0070E060E02AF09A95660F771F881FDAF73E
:0A2A3C00880F9695879597F9089585
:102A46006F927F928F92CF92DF92EF92FF920F93C7
:102A56001F93CF93DF936C01FB013901842EC801CC
:102A6600C281D38104811581E080F180232B242B40
:102A760031F42EE4622E21E0722E20E0822E0097A1
:102A860021F4882DB3010E94E517D7FD04C0C817AD
:102A9600D90708F4CE019C01682DA301C6010E9446
:102AA600B411DF91CF911F910F91FF90EF90DF90BE
:0A2AB600CF908F907F906F900895ED
:102AC000DC012D913D914C911297F901849147FDC4
:102AD00080818A3221F080E090E07AE011C02F5F9F
:102AE0003F4F4F4F2D933D934C93DB01ED91FC9164
:102AF0001197CF0102968D939C93808191810895C7
:102B00002D913D914C911297F901549147FD5081BF
:102B100050535A3080F4789FF001799FF00D1124C2
:102B2000CF01850F911D2F5F3F4F4F4F2D933D9349
:082B30004C931297E5CF0895C4
:102B380061157105810541F11090950015FC04C0DF
:102B4800689415F8109295001124FB01982F849130
:102B580097FD8081E82FE770F0E0EE0FFF1FE65940
:102B6800FF4F0190F081E02D4081869586958695EE
:102B7800877021E030E0B90102C0660F771F8A959F
:102B8800E2F7CB01842780831090950016FC04C0DF
:0E2B9800689416F810929500112481E00895BB
:102BA600CF92DF92EF92611571058105C9F0109001
:102BB600950017FC04C0689417F81092950011242C
:102BC6006B01E82E0E94A10EF6014491E7FC4081BC
:102BD60047FB442740F98E2DB6010E94B90B0AC067
:102BE6001090960010FC04C0689410F8109296009D
:102BF600112481E01090960011FC04C0689411F82D
:0E2C0600109296001124EF90DF90CF90089569
:102C14006F927F928F92CF92DF92EF920F931F93D6
:102C2400CF93DF938C016A01E62EE9013A01862EE7
:102C3400620E731E811C37FD8A94C614D704E804FF
:102C440079F0F6018491E7FC8081B801082E000C2C
:102C5400990B0E9449128FEFC81AD80AE80AEDCFDF
:102C6400CE01DF91CF911F910F91EF90DF90CF9024
:082C74008F907F906F9008958E
:102C7C00CF92DF92EF920F9361157105810599F058
:102C8C001090850013FC04C0689413F81092850012
:102C9C0011246B01E82E0E94490B402F8E2DB6019A
:102CAC000E941E130AC01090850014FC04C0689486
:102CBC0014F810928500112480E01090850015FC0A
:102CCC0004C0689415F81092850011240F91EF90B0
:062CDC00DF90CF90089587
:102CE2006115710529F11090860015FC04C06894E5
:102CF20015F8109286001124FB0194E0DB011D926D
:102D02009A95E9F71F928F938BE591E0A0E0AF933C
:102D12009F938F93FF936F930E940F188DB79EB767
:102D220007960FB6F8949EBF0FBE8DBF81E008953F
:102D32001090860016FC04C0689416F81092860063
:062D4200112480E0089559
:102D48000E94291788F09F5798F0B92F9927B751F3
:102D5800B0F0E1F0660F771F881F991F1AF0BA9537
:102D6800C9F714C0B13091F00E94D118B1E00895AC
:102D78000C94D118672F782F8827B85F39F0B93F9E
:102D8800CCF3869577956795B395D9F73EF49095EA
:0E2D98008095709561957F4F8F4F9F4F0895E6
:102DA6008F929F92AF92BF92CF92DF92EF92FF9255
:102DB6001090910011FC04C0689411F810929100D3
:102DC600112449015A010E94E6146B017C01C501D8
:102DD600B4010E94E6149B01AC01C701B6010E9432
:102DE600E818FF90EF90DF90CF90BF90AF909F9044
:042DF6008F9008951D
:102DFA00990F0008550FAA0BE0E8FEEF1616170602
:102E0A00E807F907C0F012161306E407F50798F069
:102E1A00621B730B840B950B39F40A2661F0232B82
:102E2A00242B252B21F408950A2609F4A140A695FE
:082E3A008FEF811D811D089539
:102E420057FD9058440F551F59F05F3F71F0479559
:102E5200880F97FB991F61F09F3F79F0879508953E
:102E6200121613061406551FF2CF4695F1DF08C05D
:102E7200161617061806991FF1CF8695710561057A
:042E82000894089513
:102E8600A1E21A2EAA1BBB1BFD010DC0AA1FBB1F68
:102E9600EE1FFF1FA217B307E407F50720F0A21BDA
:102EA600B30BE40BF50B661F771F881F991F1A9447
:102EB60069F760957095809590959B01AC01BD0171
:042EC600CF0108959B
:102ECA002F923F924F925F926F927F928F929F9230
:102EDA00AF92BF92CF92DF92EF92FF920F931F931E
:102EEA00CF93DF93CDB7DEB7CA1BDB0B0FB6F894CF
:082EFA00DEBF0FBECDBF09943D
:102F02002A88398848885F846E847D848C849B8477
:102F1200AA84B984C884DF80EE80FD800C811B8185
:102F2200AA81B981CE0FD11D0FB6F894DEBF0FBEB4
:062F3200CDBFED01089582
:102F3800CF92DF92EF92FF921090910010FC04C0A4
:102F4800689410F81092910011246B017C01CA0159
:102F5800B901A70196010E943318FF90EF90DF9006
:042F6800CF90089569
:102F6C00A2E0B0E0ECEBF7E10C9473178C013A8320
:102F7C0029839E012F5F3F4F0E94FF11F801208192
:102F8C0024FF02C08FEF9FEF2296E4E00C948F1782
:102F9C00052E97FB1EF400940E94A51857FD07D030
:102FAC000E94431707FC03D04EF40C94A5185095BF
:0E2FBC004095309521953F4F4F4F5F4F089540
:102FCA00CF92DF92EF926B01E82EA82FCB01FC0182
:102FDA002491A7FD2081222319F00196A11DF7CF84
:0C2FEA008C199D09EF90DF90CF900895A6
:102FF6001090980010FC04C0689410F81092980085
:1030060011246AE770E080E80E94660F69E870E0C4
:0830160080E80E94FD07089507
:10301E00A0E0B0E0E5E1F8E10C9475179E01265FA3
:10302E003F4F4F81588569858D819E810E947A1808
:06303E00E2E00C94911782
:10304400092E0394000C11F4882352F0BB0F40F4B2
:10305400BF2B11F460FF04C06F5F7F4F8F4F9F4FF2
:023064000895CD
:10306600DB018F939F930E948618BF91AF91A29F19
:10307600800D911DA39F900DB29F900D1124089570
:10308600A29FB001B39FC001A39F700D811D1124A3
:0E309600911DB29F700D811D1124911D089592
:1030A4001090900016FC04C0689416F810929000DA
:0C30B4001124620F731F841F951F0895E4
:1030C0001090900017FC04C0689417F810929000BC
:0C30D0001124621B730B840B950B0895F8
:1030DC0010908F0010FC04C0689410F810928F00B0
:0830EC0011240E94FB17089556
:1030F4000F931F9389019A01462F6FEF7FE70E9478
:0831040075101F910F91089551
:10310C000E944318A59F900DB49F900DA49F800D15
:06311C00911D112408952D
:10312200EC010E94F8180E94F718CE010E94F918CB
:06313200CE010E94F51819
:103138009C01215631092A31310510F48F759927E0
:023148000895E8
:10314A0090958095709561957F4F8F4F9F4F089509
:10315A009C01215431092A31310508F4806208950D
:0E316A005058BB27AA270E946F0D0C94221804
:0E3178000E94A4166894B1110C94D218089508
:0E31860000240A941616170618060906089566
:0E31940000240A941216130614060506089568
:0E31A200E894BB2766277727CB0197F908959D
:0C31B00097F99F6780E870E060E00895E8
:0A31BC000E94FD1608F481E008955A
:0A31C6000E94FD1608F48FEF089533
:0831D0000E94290C0C94221846
:0831D8000E94050D0C94221861
:0631E0009FEF80EC089552
:0431E6000C94000045
:0431EA000E946100DE
:0231EE00089542
:0231F000089540
:0231F20008953E
:0831F400390036003300300001
:0831FC003B00380035003200F1
:083204003A00370034003100EC
:08320C006A625A523B332B1B8E
:06321400585041495161D0
:00000001FF
